{
  "transactions": [
    {
      "hash": "0x61b1f5fd27d5ec24e0ad3c2cdee4dc4e05702889fc42eeb109741e4e5adf36d8",
      "transactionType": "CALL",
      "contractName": null,
      "contractAddress": "0x69b0facc594df4a1a2b54d7226ba2d36500b5a97",
      "function": "contribute(bytes32[])",
      "arguments": [
        "[]"
      ],
      "transaction": {
        "from": "0x2f6160ab362d2c79f3c27d43ba29ed770250165a",
        "to": "0x69b0facc594df4a1a2b54d7226ba2d36500b5a97",
        "gas": "0x3c946",
        "value": "0x91a94863ca8000",
        "input": "0xf7bdc4f700000000000000000000000000000000000000000000000000000000000000200000000000000000000000000000000000000000000000000000000000000000",
        "nonce": "0x4b",
        "chainId": "0xaa36a7"
      },
      "additionalContracts": [],
      "isFixedGasLimit": false
    }
  ],
  "receipts": [
    {
      "status": "0x1",
      "cumulativeGasUsed": "0xb3ddf3",
      "logs": [
        {
          "address": "0x69b0facc594df4a1a2b54d7226ba2d36500b5a97",
          "topics": [
            "0x2499a5330ab0979cc612135e7883ebc3cd5c9f7a8508f042540c34723348f632",
            "0x0000000000000000000000002f6160ab362d2c79f3c27d43ba29ed770250165a"
          ],
          "data": "0x0000000000000000000000000000000000000000000000000091a94863ca8000",
          "blockHash": "0x9b8695ea26fc2679d05d76ae8351ddc0bcc6ad67ee45e58e877701b6ad0a5ac8",
          "blockNumber": "0x7feb98",
          "blockTimestamp": "0x682f5480",
          "transactionHash": "0x61b1f5fd27d5ec24e0ad3c2cdee4dc4e05702889fc42eeb109741e4e5adf36d8",
          "transactionIndex": "0x6e",
          "logIndex": "0x98",
          "removed": false
        },
        {
          "address": "0x69b0facc594df4a1a2b54d7226ba2d36500b5a97",
          "topics": [
            "0x08ce00466abd322339ad31e43307a70a872f8c32a13d8b24ed85948ba75ed1b3",
            "0x0000000000000000000000002f6160ab362d2c79f3c27d43ba29ed770250165a"
          ],
          "data": "0x0000000000000000000000000000000000000000000000000091a94863ca80000000000000000000000000000000000000000000000000000000000000000001",
          "blockHash": "0x9b8695ea26fc2679d05d76ae8351ddc0bcc6ad67ee45e58e877701b6ad0a5ac8",
          "blockNumber": "0x7feb98",
          "blockTimestamp": "0x682f5480",
          "transactionHash": "0x61b1f5fd27d5ec24e0ad3c2cdee4dc4e05702889fc42eeb109741e4e5adf36d8",
          "transactionIndex": "0x6e",
          "logIndex": "0x99",
          "removed": false
        }
      ],
      "logsBloom": "0x00000000000000000000000000000000000000000000000000000000000020000800000000000000000000000000000000000000000000000080000000000000000000000000000000000000000400014002000000000000000000000000000000000000000000000000000000000000000000020000000000000000000000000800000000000000000000040000000000000000000000000000000000000000000000000000000000000000000000000000000000000000000000000000000000000000000000000004000000000000000000000000000000000000000000000000000000000000000000000080000000000000000000000000000000000000",
      "type": "0x2",
      "transactionHash": "0x61b1f5fd27d5ec24e0ad3c2cdee4dc4e05702889fc42eeb109741e4e5adf36d8",
      "transactionIndex": "0x6e",
      "blockHash": "0x9b8695ea26fc2679d05d76ae8351ddc0bcc6ad67ee45e58e877701b6ad0a5ac8",
      "blockNumber": "0x7feb98",
      "gasUsed": "0x2bdbe",
      "effectiveGasPrice": "0xb6f9c7",
      "from": "0x2f6160ab362d2c79f3c27d43ba29ed770250165a",
      "to": "0x69b0facc594df4a1a2b54d7226ba2d36500b5a97",
      "contractAddress": null
    }
  ],
  "libraries": [],
  "pending": [],
  "returns": {},
  "timestamp": 1747932289,
  "chain": 11155111,
  "commit": "446c0bd"
}