{
  "transactions": [
    {
      "hash": "0xae3507edd1d3d7b8359aeaf9611e35d8b107a2ac7bcb2f1094a3c8bdc48987b3",
      "transactionType": "CALL",
      "contractName": null,
      "contractAddress": "0xab6d3e8b3585238cb86a6e5d2b290846f6aba425",
      "function": "contribute(bytes32[])",
      "arguments": [
        "[]"
      ],
      "transaction": {
        "from": "0x8a62f3aabf704229ffaa456077d556d656cb1311",
        "to": "0xab6d3e8b3585238cb86a6e5d2b290846f6aba425",
        "gas": "0x3c946",
        "value": "0x91a94863ca8000",
        "input": "0xf7bdc4f700000000000000000000000000000000000000000000000000000000000000200000000000000000000000000000000000000000000000000000000000000000",
        "nonce": "0x13",
        "chainId": "0xaa36a7"
      },
      "additionalContracts": [],
      "isFixedGasLimit": false
    }
  ],
  "receipts": [
    {
      "status": "0x1",
      "cumulativeGasUsed": "0xd6f56a",
      "logs": [
        {
          "address": "0xab6d3e8b3585238cb86a6e5d2b290846f6aba425",
          "topics": [
            "0x2499a5330ab0979cc612135e7883ebc3cd5c9f7a8508f042540c34723348f632",
            "0x0000000000000000000000008a62f3aabf704229ffaa456077d556d656cb1311"
          ],
          "data": "0x0000000000000000000000000000000000000000000000000091a94863ca8000",
          "blockHash": "0x61be016d65988d0078317589f5f619afd698cc9797b952d8c5e9ddb096a43ad4",
          "blockNumber": "0x7fed2c",
          "blockTimestamp": "0x682f6770",
          "transactionHash": "0xae3507edd1d3d7b8359aeaf9611e35d8b107a2ac7bcb2f1094a3c8bdc48987b3",
          "transactionIndex": "0x6d",
          "logIndex": "0x93",
          "removed": false
        },
        {
          "address": "0xab6d3e8b3585238cb86a6e5d2b290846f6aba425",
          "topics": [
            "0x08ce00466abd322339ad31e43307a70a872f8c32a13d8b24ed85948ba75ed1b3",
            "0x0000000000000000000000008a62f3aabf704229ffaa456077d556d656cb1311"
          ],
          "data": "0x0000000000000000000000000000000000000000000000000091a94863ca80000000000000000000000000000000000000000000000000000000000000000001",
          "blockHash": "0x61be016d65988d0078317589f5f619afd698cc9797b952d8c5e9ddb096a43ad4",
          "blockNumber": "0x7fed2c",
          "blockTimestamp": "0x682f6770",
          "transactionHash": "0xae3507edd1d3d7b8359aeaf9611e35d8b107a2ac7bcb2f1094a3c8bdc48987b3",
          "transactionIndex": "0x6d",
          "logIndex": "0x94",
          "removed": false
        }
      ],
      "logsBloom": "0x00000000000000000000000000000000000001000000000000000000000000000000000000000000000000000000000000000000000000000000000000000000000000000000000000000000000400010002000000000400000000000000000400000000000000000000040000000000000000020000000000000000000000000800000000000000000000040000200000000000000000000000000000000000000000000000000000000000000000000000001000000000000000000000000000000000000000000000000000000000000000000000000000000000000000000000000000000000000000000000000000000000000000000000000000000000",
      "type": "0x2",
      "transactionHash": "0xae3507edd1d3d7b8359aeaf9611e35d8b107a2ac7bcb2f1094a3c8bdc48987b3",
      "transactionIndex": "0x6d",
      "blockHash": "0x61be016d65988d0078317589f5f619afd698cc9797b952d8c5e9ddb096a43ad4",
      "blockNumber": "0x7fed2c",
      "gasUsed": "0x2bdbe",
      "effectiveGasPrice": "0x14f732",
      "from": "0x8a62f3aabf704229ffaa456077d556d656cb1311",
      "to": "0xab6d3e8b3585238cb86a6e5d2b290846f6aba425",
      "contractAddress": null
    }
  ],
  "libraries": [],
  "pending": [],
  "returns": {},
  "timestamp": 1747937138,
  "chain": 11155111,
  "commit": "446c0bd"
}