{
  "transactions": [
    {
      "hash": "0x8f9fe39e8f179ae7ab0af9d9b37979b06ef9d20ea6a61380bbadf2ab0d3011f6",
      "transactionType": "CALL",
      "contractName": null,
      "contractAddress": "0xfb60461f5d8f83c476af0ff1993d53da2d918d88",
      "function": "contribute(bytes32[])",
      "arguments": [
        "[]"
      ],
      "transaction": {
        "from": "0x8a62f3aabf704229ffaa456077d556d656cb1311",
        "to": "0xfb60461f5d8f83c476af0ff1993d53da2d918d88",
        "gas": "0x2dd39",
        "value": "0x91a94863ca8000",
        "input": "0xf7bdc4f700000000000000000000000000000000000000000000000000000000000000200000000000000000000000000000000000000000000000000000000000000000",
        "nonce": "0x0",
        "chainId": "0xaa36a7"
      },
      "additionalContracts": [],
      "isFixedGasLimit": false
    }
  ],
  "receipts": [
    {
      "status": "0x1",
      "cumulativeGasUsed": "0xde8ac0",
      "logs": [
        {
          "address": "0xfb60461f5d8f83c476af0ff1993d53da2d918d88",
          "topics": [
            "0x2499a5330ab0979cc612135e7883ebc3cd5c9f7a8508f042540c34723348f632",
            "0x0000000000000000000000008a62f3aabf704229ffaa456077d556d656cb1311"
          ],
          "data": "0x0000000000000000000000000000000000000000000000000091a94863ca8000",
          "blockHash": "0x20297a9cdccb9a69e9430374123b4abd2d75524bc946139e5a931402c97a7f0a",
          "blockNumber": "0x7fea90",
          "blockTimestamp": "0x682f4820",
          "transactionHash": "0x8f9fe39e8f179ae7ab0af9d9b37979b06ef9d20ea6a61380bbadf2ab0d3011f6",
          "transactionIndex": "0x6d",
          "logIndex": "0xbb",
          "removed": false
        },
        {
          "address": "0xfb60461f5d8f83c476af0ff1993d53da2d918d88",
          "topics": [
            "0x08ce00466abd322339ad31e43307a70a872f8c32a13d8b24ed85948ba75ed1b3",
            "0x0000000000000000000000008a62f3aabf704229ffaa456077d556d656cb1311"
          ],
          "data": "0x0000000000000000000000000000000000000000000000000091a94863ca80000000000000000000000000000000000000000000000000000000000000000001",
          "blockHash": "0x20297a9cdccb9a69e9430374123b4abd2d75524bc946139e5a931402c97a7f0a",
          "blockNumber": "0x7fea90",
          "blockTimestamp": "0x682f4820",
          "transactionHash": "0x8f9fe39e8f179ae7ab0af9d9b37979b06ef9d20ea6a61380bbadf2ab0d3011f6",
          "transactionIndex": "0x6d",
          "logIndex": "0xbc",
          "removed": false
        }
      ],
      "logsBloom": "0x00000000000000000000000000000000000001000000000000000000000000000000000000000000010000000000000000000000000000000000000000000000000000000000000400000000000400010002000000000400000000000000000000000000000000000000000000000000000000020000000000000000000000000800000000000000000000040000000000000000000000000000000000000040000000000000000000000000000000000000001000000000000000000000000000000000000000000000000000000000000000000000000000000000000000000000000000000000000000000000000000000000000000000000000000000000",
      "type": "0x2",
      "transactionHash": "0x8f9fe39e8f179ae7ab0af9d9b37979b06ef9d20ea6a61380bbadf2ab0d3011f6",
      "transactionIndex": "0x6d",
      "blockHash": "0x20297a9cdccb9a69e9430374123b4abd2d75524bc946139e5a931402c97a7f0a",
      "blockNumber": "0x7fea90",
      "gasUsed": "0x1f55a",
      "effectiveGasPrice": "0x6dbea4",
      "from": "0x8a62f3aabf704229ffaa456077d556d656cb1311",
      "to": "0xfb60461f5d8f83c476af0ff1993d53da2d918d88",
      "contractAddress": null
    }
  ],
  "libraries": [],
  "pending": [],
  "returns": {},
  "timestamp": 1747929121,
  "chain": 11155111,
  "commit": "446c0bd"
}