{
  "transactions": [
    {
      "hash": "0x6edaeddfe941c795537d49fb54dd059154683da4b7f6502e358512e61d61f44e",
      "transactionType": "CALL",
      "contractName": null,
      "contractAddress": "0xab8cbaac675fbd925276bcd9b30baf895f8f9037",
      "function": "contribute(bytes32[])",
      "arguments": [
        "[]"
      ],
      "transaction": {
        "from": "0x2f6160ab362d2c79f3c27d43ba29ed770250165a",
        "to": "0xab8cbaac675fbd925276bcd9b30baf895f8f9037",
        "gas": "0x3c946",
        "value": "0x91a94863ca8000",
        "input": "0xf7bdc4f700000000000000000000000000000000000000000000000000000000000000200000000000000000000000000000000000000000000000000000000000000000",
        "nonce": "0x5e",
        "chainId": "0xaa36a7"
      },
      "additionalContracts": [],
      "isFixedGasLimit": false
    }
  ],
  "receipts": [
    {
      "status": "0x1",
      "cumulativeGasUsed": "0x181f19e",
      "logs": [
        {
          "address": "0xab8cbaac675fbd925276bcd9b30baf895f8f9037",
          "topics": [
            "0x2499a5330ab0979cc612135e7883ebc3cd5c9f7a8508f042540c34723348f632",
            "0x0000000000000000000000002f6160ab362d2c79f3c27d43ba29ed770250165a"
          ],
          "data": "0x0000000000000000000000000000000000000000000000000091a94863ca8000",
          "blockHash": "0x1f648f7aeb92f44ec4e6022611a49c87a485805fd57dee1fa33bfa1ca706301e",
          "blockNumber": "0x7fee4a",
          "blockTimestamp": "0x682f74e4",
          "transactionHash": "0x6edaeddfe941c795537d49fb54dd059154683da4b7f6502e358512e61d61f44e",
          "transactionIndex": "0x105",
          "logIndex": "0x17d",
          "removed": false
        },
        {
          "address": "0xab8cbaac675fbd925276bcd9b30baf895f8f9037",
          "topics": [
            "0x08ce00466abd322339ad31e43307a70a872f8c32a13d8b24ed85948ba75ed1b3",
            "0x0000000000000000000000002f6160ab362d2c79f3c27d43ba29ed770250165a"
          ],
          "data": "0x0000000000000000000000000000000000000000000000000091a94863ca80000000000000000000000000000000000000000000000000000000000000000001",
          "blockHash": "0x1f648f7aeb92f44ec4e6022611a49c87a485805fd57dee1fa33bfa1ca706301e",
          "blockNumber": "0x7fee4a",
          "blockTimestamp": "0x682f74e4",
          "transactionHash": "0x6edaeddfe941c795537d49fb54dd059154683da4b7f6502e358512e61d61f44e",
          "transactionIndex": "0x105",
          "logIndex": "0x17e",
          "removed": false
        }
      ],
      "logsBloom": "0x00000000000000000000000000000000000000000000000000000000000020000000000000000000001000000000000000000000000000000080000000000000000000000000000000000000000400010002000000000000000000000000000000000000000000000000020000000000000000020000000000000000000000000800000000000000000000040000000000000000000000000000000000000000000000000000000000000000000000000000000000000000000000000000000000000000000000000000000000000000000000000000000000000000000000000000008000000000000000000080000000000000000000000000000000000000",
      "type": "0x2",
      "transactionHash": "0x6edaeddfe941c795537d49fb54dd059154683da4b7f6502e358512e61d61f44e",
      "transactionIndex": "0x105",
      "blockHash": "0x1f648f7aeb92f44ec4e6022611a49c87a485805fd57dee1fa33bfa1ca706301e",
      "blockNumber": "0x7fee4a",
      "gasUsed": "0x2bdbe",
      "effectiveGasPrice": "0xf6104",
      "from": "0x2f6160ab362d2c79f3c27d43ba29ed770250165a",
      "to": "0xab8cbaac675fbd925276bcd9b30baf895f8f9037",
      "contractAddress": null
    }
  ],
  "libraries": [],
  "pending": [],
  "returns": {},
  "timestamp": 1747940582,
  "chain": 11155111,
  "commit": "446c0bd"
}