{
  "transactions": [
    {
      "hash": "0xf4f5e041b74d88302e1c582a0e011e4ac26d41b8493310ce9b1c74db5a5a15f8",
      "transactionType": "CALL",
      "contractName": null,
      "contractAddress": "0xab6d3e8b3585238cb86a6e5d2b290846f6aba425",
      "function": "contribute(bytes32[])",
      "arguments": [
        "[]"
      ],
      "transaction": {
        "from": "0x2f6160ab362d2c79f3c27d43ba29ed770250165a",
        "to": "0xab6d3e8b3585238cb86a6e5d2b290846f6aba425",
        "gas": "0x2dd39",
        "value": "0x91a94863ca8000",
        "input": "0xf7bdc4f700000000000000000000000000000000000000000000000000000000000000200000000000000000000000000000000000000000000000000000000000000000",
        "nonce": "0x53",
        "chainId": "0xaa36a7"
      },
      "additionalContracts": [],
      "isFixedGasLimit": false
    }
  ],
  "receipts": [
    {
      "status": "0x1",
      "cumulativeGasUsed": "0xb76cb6",
      "logs": [
        {
          "address": "0xab6d3e8b3585238cb86a6e5d2b290846f6aba425",
          "topics": [
            "0x2499a5330ab0979cc612135e7883ebc3cd5c9f7a8508f042540c34723348f632",
            "0x0000000000000000000000002f6160ab362d2c79f3c27d43ba29ed770250165a"
          ],
          "data": "0x0000000000000000000000000000000000000000000000000091a94863ca8000",
          "blockHash": "0x9ca9a81104f1d574c07448ca1d68cd533f2037d6467b6ceba539df6a966fb078",
          "blockNumber": "0x7fed3d",
          "blockTimestamp": "0x682f683c",
          "transactionHash": "0xf4f5e041b74d88302e1c582a0e011e4ac26d41b8493310ce9b1c74db5a5a15f8",
          "transactionIndex": "0x74",
          "logIndex": "0xb8",
          "removed": false
        },
        {
          "address": "0xab6d3e8b3585238cb86a6e5d2b290846f6aba425",
          "topics": [
            "0x08ce00466abd322339ad31e43307a70a872f8c32a13d8b24ed85948ba75ed1b3",
            "0x0000000000000000000000002f6160ab362d2c79f3c27d43ba29ed770250165a"
          ],
          "data": "0x0000000000000000000000000000000000000000000000000091a94863ca80000000000000000000000000000000000000000000000000000000000000000001",
          "blockHash": "0x9ca9a81104f1d574c07448ca1d68cd533f2037d6467b6ceba539df6a966fb078",
          "blockNumber": "0x7fed3d",
          "blockTimestamp": "0x682f683c",
          "transactionHash": "0xf4f5e041b74d88302e1c582a0e011e4ac26d41b8493310ce9b1c74db5a5a15f8",
          "transactionIndex": "0x74",
          "logIndex": "0xb9",
          "removed": false
        }
      ],
      "logsBloom": "0x00000000000000000000000000000000000000000000000000000000000020000000000000000000000000000000000000000000000000000080000000000000000000000000000000000000000400010002000000000000000000000000000400000000000000000000040000000000000000020000000000000000000000000800000000000000000000040000200000000000000000000000000000000000000000000000000000000000000000000000000000000000000000000000000000000000000000000000000000000000000000000000000000000000000000000000000000000000000000000080000000000000000000000000000000000000",
      "type": "0x2",
      "transactionHash": "0xf4f5e041b74d88302e1c582a0e011e4ac26d41b8493310ce9b1c74db5a5a15f8",
      "transactionIndex": "0x74",
      "blockHash": "0x9ca9a81104f1d574c07448ca1d68cd533f2037d6467b6ceba539df6a966fb078",
      "blockNumber": "0x7fed3d",
      "gasUsed": "0x1f55a",
      "effectiveGasPrice": "0x15f466",
      "from": "0x2f6160ab362d2c79f3c27d43ba29ed770250165a",
      "to": "0xab6d3e8b3585238cb86a6e5d2b290846f6aba425",
      "contractAddress": null
    }
  ],
  "libraries": [],
  "pending": [],
  "returns": {},
  "timestamp": 1747937340,
  "chain": 11155111,
  "commit": "446c0bd"
}