{
  "transactions": [
    {
      "hash": "0x10c2d4d6091ae4255ec46abb9aef8babff5e423389d1f8073508844fbefc925c",
      "transactionType": "CALL",
      "contractName": null,
      "contractAddress": "0x5293fd0642a9bbfc19cd23a38a9577deaa544b96",
      "function": "contribute(bytes32[])",
      "arguments": [
        "[]"
      ],
      "transaction": {
        "from": "0x8a62f3aabf704229ffaa456077d556d656cb1311",
        "to": "0x5293fd0642a9bbfc19cd23a38a9577deaa544b96",
        "gas": "0x2dd39",
        "value": "0x91a94863ca8000",
        "input": "0xf7bdc4f700000000000000000000000000000000000000000000000000000000000000200000000000000000000000000000000000000000000000000000000000000000",
        "nonce": "0x18",
        "chainId": "0xaa36a7"
      },
      "additionalContracts": [],
      "isFixedGasLimit": false
    }
  ],
  "receipts": [
    {
      "status": "0x1",
      "cumulativeGasUsed": "0x8122d4",
      "logs": [
        {
          "address": "0x5293fd0642a9bbfc19cd23a38a9577deaa544b96",
          "topics": [
            "0x2499a5330ab0979cc612135e7883ebc3cd5c9f7a8508f042540c34723348f632",
            "0x0000000000000000000000008a62f3aabf704229ffaa456077d556d656cb1311"
          ],
          "data": "0x0000000000000000000000000000000000000000000000000091a94863ca8000",
          "blockHash": "0x08eb895403eb07791a4325dfc6e386cc0ee5dc21b36ad06ff4c11624fdd22380",
          "blockNumber": "0x7fef81",
          "blockTimestamp": "0x682f8378",
          "transactionHash": "0x10c2d4d6091ae4255ec46abb9aef8babff5e423389d1f8073508844fbefc925c",
          "transactionIndex": "0x58",
          "logIndex": "0x80",
          "removed": false
        },
        {
          "address": "0x5293fd0642a9bbfc19cd23a38a9577deaa544b96",
          "topics": [
            "0x08ce00466abd322339ad31e43307a70a872f8c32a13d8b24ed85948ba75ed1b3",
            "0x0000000000000000000000008a62f3aabf704229ffaa456077d556d656cb1311"
          ],
          "data": "0x0000000000000000000000000000000000000000000000000091a94863ca80000000000000000000000000000000000000000000000000000000000000000001",
          "blockHash": "0x08eb895403eb07791a4325dfc6e386cc0ee5dc21b36ad06ff4c11624fdd22380",
          "blockNumber": "0x7fef81",
          "blockTimestamp": "0x682f8378",
          "transactionHash": "0x10c2d4d6091ae4255ec46abb9aef8babff5e423389d1f8073508844fbefc925c",
          "transactionIndex": "0x58",
          "logIndex": "0x81",
          "removed": false
        }
      ],
      "logsBloom": "0x00000000000000000000000000000000000001000000000000000000000000000000008000000000000000000000000000000000000000000000000000000000000000000000000000000000000400010002000000000400000000000000000000000000000000000000000000000000000000020000000004000000000000000800000000000000000000040000000000000000000000000000000000000000000000000000000000000000000000000000001000000000000000000000000000000000000000000000000000000000000000000000000000000000000000000000000000000000000000000000000000000000000000080000000000000000",
      "type": "0x2",
      "transactionHash": "0x10c2d4d6091ae4255ec46abb9aef8babff5e423389d1f8073508844fbefc925c",
      "transactionIndex": "0x58",
      "blockHash": "0x08eb895403eb07791a4325dfc6e386cc0ee5dc21b36ad06ff4c11624fdd22380",
      "blockNumber": "0x7fef81",
      "gasUsed": "0x1f55a",
      "effectiveGasPrice": "0xf424b",
      "from": "0x8a62f3aabf704229ffaa456077d556d656cb1311",
      "to": "0x5293fd0642a9bbfc19cd23a38a9577deaa544b96",
      "contractAddress": null
    }
  ],
  "libraries": [],
  "pending": [],
  "returns": {},
  "timestamp": 1747944312,
  "chain": 11155111,
  "commit": "446c0bd"
}