{
  "transactions": [
    {
      "hash": "0xcdfc1b5fb0072c5bce28faba5ed62682c2771992be235f25f9b5cff3cafc0e70",
      "transactionType": "CALL",
      "contractName": null,
      "contractAddress": "0x4e355b5fbb232fc1798ec5504aa829469ac41ffe",
      "function": "contribute(bytes32[])",
      "arguments": [
        "[]"
      ],
      "transaction": {
        "from": "0x2f6160ab362d2c79f3c27d43ba29ed770250165a",
        "to": "0x4e355b5fbb232fc1798ec5504aa829469ac41ffe",
        "gas": "0x3c946",
        "value": "0x91a94863ca8000",
        "input": "0xf7bdc4f700000000000000000000000000000000000000000000000000000000000000200000000000000000000000000000000000000000000000000000000000000000",
        "nonce": "0x3c",
        "chainId": "0xaa36a7"
      },
      "additionalContracts": [],
      "isFixedGasLimit": false
    }
  ],
  "receipts": [
    {
      "status": "0x1",
      "cumulativeGasUsed": "0x1185e6f",
      "logs": [
        {
          "address": "0x4e355b5fbb232fc1798ec5504aa829469ac41ffe",
          "topics": [
            "0x2499a5330ab0979cc612135e7883ebc3cd5c9f7a8508f042540c34723348f632",
            "0x0000000000000000000000002f6160ab362d2c79f3c27d43ba29ed770250165a"
          ],
          "data": "0x0000000000000000000000000000000000000000000000000091a94863ca8000",
          "blockHash": "0x8a0fbbad4c52671649d20508dec03a5b5b00bb69903b11582638623951026017",
          "blockNumber": "0x7fea40",
          "blockTimestamp": "0x682f4460",
          "transactionHash": "0xcdfc1b5fb0072c5bce28faba5ed62682c2771992be235f25f9b5cff3cafc0e70",
          "transactionIndex": "0x8a",
          "logIndex": "0x11b",
          "removed": false
        },
        {
          "address": "0x4e355b5fbb232fc1798ec5504aa829469ac41ffe",
          "topics": [
            "0x08ce00466abd322339ad31e43307a70a872f8c32a13d8b24ed85948ba75ed1b3",
            "0x0000000000000000000000002f6160ab362d2c79f3c27d43ba29ed770250165a"
          ],
          "data": "0x0000000000000000000000000000000000000000000000000091a94863ca80000000000000000000000000000000000000000000000000000000000000000001",
          "blockHash": "0x8a0fbbad4c52671649d20508dec03a5b5b00bb69903b11582638623951026017",
          "blockNumber": "0x7fea40",
          "blockTimestamp": "0x682f4460",
          "transactionHash": "0xcdfc1b5fb0072c5bce28faba5ed62682c2771992be235f25f9b5cff3cafc0e70",
          "transactionIndex": "0x8a",
          "logIndex": "0x11c",
          "removed": false
        }
      ],
      "logsBloom": "0x00000000000000000000000000000000000000000000000000000000000020000000000000000000000000000000000000000000000000000080000000000000000000000000000000000000000400010002000000000000000000000000020000000000000000000000000000000000000000020000000000000000000000000800000000000000000000040000000000000000000010000000000000000000000000000000000000000000000000000000000000000000000000000000000000000000000000000000000000000000000000000000000000000000000000000000000000000000000000000080000000000000000000000010000000000000",
      "type": "0x2",
      "transactionHash": "0xcdfc1b5fb0072c5bce28faba5ed62682c2771992be235f25f9b5cff3cafc0e70",
      "transactionIndex": "0x8a",
      "blockHash": "0x8a0fbbad4c52671649d20508dec03a5b5b00bb69903b11582638623951026017",
      "blockNumber": "0x7fea40",
      "gasUsed": "0x2bdbe",
      "effectiveGasPrice": "0xaf3280",
      "from": "0x2f6160ab362d2c79f3c27d43ba29ed770250165a",
      "to": "0x4e355b5fbb232fc1798ec5504aa829469ac41ffe",
      "contractAddress": null
    }
  ],
  "libraries": [],
  "pending": [],
  "returns": {},
  "timestamp": 1747928161,
  "chain": 11155111,
  "commit": "446c0bd"
}