{
  "transactions": [
    {
      "hash": "0xc95e527fc1266058baa141747f27937996e72971555ce1d3d0caa618be8d855b",
      "transactionType": "CALL",
      "contractName": null,
      "contractAddress": "0x5293fd0642a9bbfc19cd23a38a9577deaa544b96",
      "function": "contribute(bytes32[])",
      "arguments": [
        "[]"
      ],
      "transaction": {
        "from": "0x2f6160ab362d2c79f3c27d43ba29ed770250165a",
        "to": "0x5293fd0642a9bbfc19cd23a38a9577deaa544b96",
        "gas": "0x3c946",
        "value": "0x91a94863ca8000",
        "input": "0xf7bdc4f700000000000000000000000000000000000000000000000000000000000000200000000000000000000000000000000000000000000000000000000000000000",
        "nonce": "0x6a",
        "chainId": "0xaa36a7"
      },
      "additionalContracts": [],
      "isFixedGasLimit": false
    }
  ],
  "receipts": [
    {
      "status": "0x1",
      "cumulativeGasUsed": "0xc345b6",
      "logs": [
        {
          "address": "0x5293fd0642a9bbfc19cd23a38a9577deaa544b96",
          "topics": [
            "0x2499a5330ab0979cc612135e7883ebc3cd5c9f7a8508f042540c34723348f632",
            "0x0000000000000000000000002f6160ab362d2c79f3c27d43ba29ed770250165a"
          ],
          "data": "0x0000000000000000000000000000000000000000000000000091a94863ca8000",
          "blockHash": "0xba3cf98a7fc751bb9b2d381e314f6fb70b6667ea03265f9b1ad3a6db36d90db0",
          "blockNumber": "0x7fef74",
          "blockTimestamp": "0x682f82dc",
          "transactionHash": "0xc95e527fc1266058baa141747f27937996e72971555ce1d3d0caa618be8d855b",
          "transactionIndex": "0x52",
          "logIndex": "0x88",
          "removed": false
        },
        {
          "address": "0x5293fd0642a9bbfc19cd23a38a9577deaa544b96",
          "topics": [
            "0x08ce00466abd322339ad31e43307a70a872f8c32a13d8b24ed85948ba75ed1b3",
            "0x0000000000000000000000002f6160ab362d2c79f3c27d43ba29ed770250165a"
          ],
          "data": "0x0000000000000000000000000000000000000000000000000091a94863ca80000000000000000000000000000000000000000000000000000000000000000001",
          "blockHash": "0xba3cf98a7fc751bb9b2d381e314f6fb70b6667ea03265f9b1ad3a6db36d90db0",
          "blockNumber": "0x7fef74",
          "blockTimestamp": "0x682f82dc",
          "transactionHash": "0xc95e527fc1266058baa141747f27937996e72971555ce1d3d0caa618be8d855b",
          "transactionIndex": "0x52",
          "logIndex": "0x89",
          "removed": false
        }
      ],
      "logsBloom": "0x00000000000000000000000000000000000000000000000000000000000020000000008000000000000000000000000000000000000000000080000000000000000000000000000000000000000400010002000000000000000000000000000000000000000000000000000000000000000000020000000004000000000000000800000000000000000000040000000000000000000000000000000000000000000000000000000000000000000000000000000000000000000000000000000000000000000000000000000000000000000000000000000000000000000000000000000000000000000000000080000000000000000000080000000000000000",
      "type": "0x2",
      "transactionHash": "0xc95e527fc1266058baa141747f27937996e72971555ce1d3d0caa618be8d855b",
      "transactionIndex": "0x52",
      "blockHash": "0xba3cf98a7fc751bb9b2d381e314f6fb70b6667ea03265f9b1ad3a6db36d90db0",
      "blockNumber": "0x7fef74",
      "gasUsed": "0x2bdbe",
      "effectiveGasPrice": "0xf424b",
      "from": "0x2f6160ab362d2c79f3c27d43ba29ed770250165a",
      "to": "0x5293fd0642a9bbfc19cd23a38a9577deaa544b96",
      "contractAddress": null
    }
  ],
  "libraries": [],
  "pending": [],
  "returns": {},
  "timestamp": 1747944159,
  "chain": 11155111,
  "commit": "446c0bd"
}