{
  "transactions": [
    {
      "hash": "0x1e45801c58d5b0a23091c85cda66e91067bad4ac908eed5d169c8e065217692b",
      "transactionType": "CALL",
      "contractName": null,
      "contractAddress": "0x69b0facc594df4a1a2b54d7226ba2d36500b5a97",
      "function": "contribute(bytes32[])",
      "arguments": [
        "[]"
      ],
      "transaction": {
        "from": "0x8a62f3aabf704229ffaa456077d556d656cb1311",
        "to": "0x69b0facc594df4a1a2b54d7226ba2d36500b5a97",
        "gas": "0x2dd39",
        "value": "0x91a94863ca8000",
        "input": "0xf7bdc4f700000000000000000000000000000000000000000000000000000000000000200000000000000000000000000000000000000000000000000000000000000000",
        "nonce": "0x2",
        "chainId": "0xaa36a7"
      },
      "additionalContracts": [],
      "isFixedGasLimit": false
    }
  ],
  "receipts": [
    {
      "status": "0x1",
      "cumulativeGasUsed": "0xee3f07",
      "logs": [
        {
          "address": "0x69b0facc594df4a1a2b54d7226ba2d36500b5a97",
          "topics": [
            "0x2499a5330ab0979cc612135e7883ebc3cd5c9f7a8508f042540c34723348f632",
            "0x0000000000000000000000008a62f3aabf704229ffaa456077d556d656cb1311"
          ],
          "data": "0x0000000000000000000000000000000000000000000000000091a94863ca8000",
          "blockHash": "0x62baebd7d0692e05e98b661501743171739d73bc2d90308721205e11f9a40dc1",
          "blockNumber": "0x7feb9e",
          "blockTimestamp": "0x682f54c8",
          "transactionHash": "0x1e45801c58d5b0a23091c85cda66e91067bad4ac908eed5d169c8e065217692b",
          "transactionIndex": "0x94",
          "logIndex": "0xdf",
          "removed": false
        },
        {
          "address": "0x69b0facc594df4a1a2b54d7226ba2d36500b5a97",
          "topics": [
            "0x08ce00466abd322339ad31e43307a70a872f8c32a13d8b24ed85948ba75ed1b3",
            "0x0000000000000000000000008a62f3aabf704229ffaa456077d556d656cb1311"
          ],
          "data": "0x0000000000000000000000000000000000000000000000000091a94863ca80000000000000000000000000000000000000000000000000000000000000000001",
          "blockHash": "0x62baebd7d0692e05e98b661501743171739d73bc2d90308721205e11f9a40dc1",
          "blockNumber": "0x7feb9e",
          "blockTimestamp": "0x682f54c8",
          "transactionHash": "0x1e45801c58d5b0a23091c85cda66e91067bad4ac908eed5d169c8e065217692b",
          "transactionIndex": "0x94",
          "logIndex": "0xe0",
          "removed": false
        }
      ],
      "logsBloom": "0x00000000000000000000000000000000000001000000000000000000000000000800000000000000000000000000000000000000000000000000000000000000000000000000000000000000000400014002000000000400000000000000000000000000000000000000000000000000000000020000000000000000000000000800000000000000000000040000000000000000000000000000000000000000000000000000000000000000000000000000001000000000000000000000000000000000000000000004000000000000000000000000000000000000000000000000000000000000000000000000000000000000000000000000000000000000",
      "type": "0x2",
      "transactionHash": "0x1e45801c58d5b0a23091c85cda66e91067bad4ac908eed5d169c8e065217692b",
      "transactionIndex": "0x94",
      "blockHash": "0x62baebd7d0692e05e98b661501743171739d73bc2d90308721205e11f9a40dc1",
      "blockNumber": "0x7feb9e",
      "gasUsed": "0x1f55a",
      "effectiveGasPrice": "0xb2eb81",
      "from": "0x8a62f3aabf704229ffaa456077d556d656cb1311",
      "to": "0x69b0facc594df4a1a2b54d7226ba2d36500b5a97",
      "contractAddress": null
    }
  ],
  "libraries": [],
  "pending": [],
  "returns": {},
  "timestamp": 1747932360,
  "chain": 11155111,
  "commit": "446c0bd"
}