{
  "transactions": [
    {
      "hash": "0xd3b62aa48542f02245def8a3ecf2385f093f26d0c0d1513264ddf26b46ca7e6d",
      "transactionType": "CALL",
      "contractName": "CreatePresale",
      "contractAddress": "0x5b73c5498c1e3b4dba84de0f1833c4a029d90519",
      "function": "internalCreatePresale(address,address,uint256,(uint256,uint256,uint256,uint256,uint256,uint256,uint256,uint256,uint256,uint256,uint256,uint256,uint256,uint256,uint256,address),address,address,address,address)",
      "arguments": [
        "0xfBc1Fa497E1314Ef2472986c9313145f631AF9D2",
        "0x0000000000000000000000000000000000000000",
        "10000000000000",
        "(1000000000000000000000000, 10000000000000000000, 5000000000000000000, 100000000000000000, 2000000000000000000, 1000, 900, 7000, 500, 1745927205, 1746010005, 2592000, 0, 0, 0, 0x0000000000000000000000000000000000000000)",
        "0x5Af583f51fC7F5c6f72408294188EcA9BEA25a98",
        "0x9D36e0edb8BBaBeec5edE8a218dc2B9a6Fce494F",
        "0x4752ba5DBc23f44D87826276BF6Fd6b1C372aD24",
        "0xAfcBFF5eA51Ba790Bdd99C0127E8D52a4BF586e9"
      ],
      "transaction": {
        "from": "0xafcbff5ea51ba790bdd99c0127e8d52a4bf586e9",
        "to": "0x5b73c5498c1e3b4dba84de0f1833c4a029d90519",
        "gas": "0x8b81",
        "value": "0x0",
        "input": "0xe0675fae000000000000000000000000fbc1fa497e1314ef2472986c9313145f631af9d20000000000000000000000000000000000000000000000000000000000000000000000000000000000000000000000000000000000000000000009184e72a00000000000000000000000000000000000000000000000d3c21bcecceda10000000000000000000000000000000000000000000000000000008ac7230489e800000000000000000000000000000000000000000000000000004563918244f40000000000000000000000000000000000000000000000000000016345785d8a00000000000000000000000000000000000000000000000000001bc16d674ec8000000000000000000000000000000000000000000000000000000000000000003e800000000000000000000000000000000000000000000000000000000000003840000000000000000000000000000000000000000000000000000000000001b5800000000000000000000000000000000000000000000000000000000000001f4000000000000000000000000000000000000000000000000000000006810bc25000000000000000000000000000000000000000000000000000000006811ff950000000000000000000000000000000000000000000000000000000000278d0000000000000000000000000000000000000000000000000000000000000000000000000000000000000000000000000000000000000000000000000000000000000000000000000000000000000000000000000000000000000000000000000000000000000000000000000000000000000000000000000000000000000000000000000000000000000000005af583f51fc7f5c6f72408294188eca9bea25a980000000000000000000000009d36e0edb8bbabeec5ede8a218dc2b9a6fce494f0000000000000000000000004752ba5dbc23f44d87826276bf6fd6b1c372ad24000000000000000000000000afcbff5ea51ba790bdd99c0127e8d52a4bf586e9",
        "nonce": "0x152",
        "chainId": "0x2105"
      },
      "additionalContracts": [],
      "isFixedGasLimit": false
    }
  ],
  "receipts": [
    {
      "status": "0x1",
      "cumulativeGasUsed": "0x2a3a994",
      "logs": [],
      "logsBloom": "0x00000000000000000000000000000000000000000000000000000000000000000000000000000000000000000000000000000000000000000000000000000000000000000000000000000000000000000000000000000000000000000000000000000000000000000000000000000000000000000000000000000000000000000000000000000000000000000000000000000000000000000000000000000000000000000000000000000000000000000000000000000000000000000000000000000000000000000000000000000000000000000000000000000000000000000000000000000000000000000000000000000000000000000000000000000000",
      "type": "0x2",
      "transactionHash": "0xd3b62aa48542f02245def8a3ecf2385f093f26d0c0d1513264ddf26b46ca7e6d",
      "transactionIndex": "0xa2",
      "blockHash": "0x175a8746ecb718f92460f33ad6bd019e70381d9dd441ac940a9e0ef80ebd0a01",
      "blockNumber": "0x1c328bb",
      "gasUsed": "0x6500",
      "effectiveGasPrice": "0x1922ee",
      "from": "0xafcbff5ea51ba790bdd99c0127e8d52a4bf586e9",
      "to": "0x5b73c5498c1e3b4dba84de0f1833c4a029d90519",
      "contractAddress": null,
      "l1BaseFeeScalar": "0x8dd",
      "l1BlobBaseFee": "0x120823472",
      "l1BlobBaseFeeScalar": "0x101c12",
      "l1Fee": "0x142d3f8479a",
      "l1GasPrice": "0x20d3d57f",
      "l1GasUsed": "0x10e4"
    }
  ],
  "libraries": [],
  "pending": [],
  "returns": {},
  "timestamp": 1745923674,
  "chain": 8453,
  "commit": "9e55582"
}